{
  "_format": "hh-sol-artifact-1",
  "contractName": "AIModelManagementContract",
  "sourceName": "contracts/AIModelManagementContract.sol",
  "abi": [
    {
      "inputs": [
        {
          "internalType": "address",
          "name": "_accessControlAddress",
          "type": "address"
        }
      ],
      "stateMutability": "nonpayable",
      "type": "constructor"
    },
    {
      "anonymous": false,
      "inputs": [
        {
          "indexed": true,
          "internalType": "uint256",
          "name": "modelId",
          "type": "uint256"
        },
        {
          "indexed": true,
          "internalType": "address",
          "name": "owner",
          "type": "address"
        },
        {
          "indexed": false,
          "internalType": "string",
          "name": "ipfsHash",
          "type": "string"
        },
        {
          "indexed": false,
          "internalType": "string",
          "name": "name",
          "type": "string"
        },
        {
          "indexed": false,
          "internalType": "string",
          "name": "description",
          "type": "string"
        }
      ],
      "name": "ModelRegistered",
      "type": "event"
    },
    {
      "anonymous": false,
      "inputs": [
        {
          "indexed": true,
          "internalType": "uint256",
          "name": "modelId",
          "type": "uint256"
        },
        {
          "indexed": false,
          "internalType": "string",
          "name": "ipfsHash",
          "type": "string"
        },
        {
          "indexed": false,
          "internalType": "string",
          "name": "name",
          "type": "string"
        },
        {
          "indexed": false,
          "internalType": "string",
          "name": "description",
          "type": "string"
        }
      ],
      "name": "ModelUpdated",
      "type": "event"
    },
    {
      "anonymous": false,
      "inputs": [
        {
          "indexed": true,
          "internalType": "address",
          "name": "previousOwner",
          "type": "address"
        },
        {
          "indexed": true,
          "internalType": "address",
          "name": "newOwner",
          "type": "address"
        }
      ],
      "name": "OwnershipTransferred",
      "type": "event"
    },
    {
      "inputs": [
        {
          "internalType": "uint256",
          "name": "modelId",
          "type": "uint256"
        }
      ],
      "name": "getModel",
      "outputs": [
        {
          "components": [
            {
              "internalType": "address",
              "name": "owner",
              "type": "address"
            },
            {
              "internalType": "string",
              "name": "ipfsHash",
              "type": "string"
            },
            {
              "internalType": "string",
              "name": "name",
              "type": "string"
            },
            {
              "internalType": "string",
              "name": "description",
              "type": "string"
            }
          ],
          "internalType": "struct AIModelManagementContract.AIModel",
          "name": "",
          "type": "tuple"
        }
      ],
      "stateMutability": "view",
      "type": "function"
    },
    {
      "inputs": [
        {
          "internalType": "uint256",
          "name": "",
          "type": "uint256"
        }
      ],
      "name": "models",
      "outputs": [
        {
          "internalType": "address",
          "name": "owner",
          "type": "address"
        },
        {
          "internalType": "string",
          "name": "ipfsHash",
          "type": "string"
        },
        {
          "internalType": "string",
          "name": "name",
          "type": "string"
        },
        {
          "internalType": "string",
          "name": "description",
          "type": "string"
        }
      ],
      "stateMutability": "view",
      "type": "function"
    },
    {
      "inputs": [],
      "name": "owner",
      "outputs": [
        {
          "internalType": "address",
          "name": "",
          "type": "address"
        }
      ],
      "stateMutability": "view",
      "type": "function"
    },
    {
      "inputs": [
        {
          "internalType": "string",
          "name": "ipfsHash",
          "type": "string"
        },
        {
          "internalType": "string",
          "name": "name",
          "type": "string"
        },
        {
          "internalType": "string",
          "name": "description",
          "type": "string"
        }
      ],
      "name": "registerModel",
      "outputs": [],
      "stateMutability": "nonpayable",
      "type": "function"
    },
    {
      "inputs": [],
      "name": "renounceOwnership",
      "outputs": [],
      "stateMutability": "nonpayable",
      "type": "function"
    },
    {
      "inputs": [
        {
          "internalType": "address",
          "name": "newOwner",
          "type": "address"
        }
      ],
      "name": "transferOwnership",
      "outputs": [],
      "stateMutability": "nonpayable",
      "type": "function"
    },
    {
      "inputs": [
        {
          "internalType": "uint256",
          "name": "modelId",
          "type": "uint256"
        },
        {
          "internalType": "string",
          "name": "ipfsHash",
          "type": "string"
        },
        {
          "internalType": "string",
          "name": "name",
          "type": "string"
        },
        {
          "internalType": "string",
          "name": "description",
          "type": "string"
        }
      ],
      "name": "updateModel",
      "outputs": [],
      "stateMutability": "nonpayable",
      "type": "function"
    }
  ],
  "bytecode": "0x60806040523480156200001157600080fd5b5060405162001d4038038062001d408339818101604052810190620000379190620001d5565b620000576200004b6200009f60201b60201c565b620000a760201b60201c565b80600160006101000a81548173ffffffffffffffffffffffffffffffffffffffff021916908373ffffffffffffffffffffffffffffffffffffffff1602179055505062000207565b600033905090565b60008060009054906101000a900473ffffffffffffffffffffffffffffffffffffffff169050816000806101000a81548173ffffffffffffffffffffffffffffffffffffffff021916908373ffffffffffffffffffffffffffffffffffffffff1602179055508173ffffffffffffffffffffffffffffffffffffffff168173ffffffffffffffffffffffffffffffffffffffff167f8be0079c531659141344cd1fd0a4f28419497f9722a3daafe3b4186f6b6457e060405160405180910390a35050565b600080fd5b600073ffffffffffffffffffffffffffffffffffffffff82169050919050565b60006200019d8262000170565b9050919050565b620001af8162000190565b8114620001bb57600080fd5b50565b600081519050620001cf81620001a4565b92915050565b600060208284031215620001ee57620001ed6200016b565b5b6000620001fe84828501620001be565b91505092915050565b611b2980620002176000396000f3fe608060405234801561001057600080fd5b506004361061007d5760003560e01c80637715fcc31161005b5780637715fcc3146100ef5780637ba8ee471461010b5780638da5cb5b14610127578063f2fde38b146101455761007d565b80636a030ca9146100825780636d361694146100b5578063715018a6146100e5575b600080fd5b61009c60048036038101906100979190610e5a565b610161565b6040516100ac9493929190610f58565b60405180910390f35b6100cf60048036038101906100ca9190610e5a565b610359565b6040516100dc919061107c565b60405180910390f35b6100ed6105e8565b005b610109600480360381019061010491906111d3565b610670565b005b6101256004803603810190610120919061127a565b610939565b005b61012f610be6565b60405161013c9190611335565b60405180910390f35b61015f600480360381019061015a919061137c565b610c0f565b005b6002818154811061017157600080fd5b90600052602060002090600402016000915090508060000160009054906101000a900473ffffffffffffffffffffffffffffffffffffffff16908060010180546101ba906113d8565b80601f01602080910402602001604051908101604052809291908181526020018280546101e6906113d8565b80156102335780601f1061020857610100808354040283529160200191610233565b820191906000526020600020905b81548152906001019060200180831161021657829003601f168201915b505050505090806002018054610248906113d8565b80601f0160208091040260200160405190810160405280929190818152602001828054610274906113d8565b80156102c15780601f10610296576101008083540402835291602001916102c1565b820191906000526020600020905b8154815290600101906020018083116102a457829003601f168201915b5050505050908060030180546102d6906113d8565b80601f0160208091040260200160405190810160405280929190818152602001828054610302906113d8565b801561034f5780601f106103245761010080835404028352916020019161034f565b820191906000526020600020905b81548152906001019060200180831161033257829003601f168201915b5050505050905084565b610361610dd2565b60028054905082106103a8576040517f08c379a000000000000000000000000000000000000000000000000000000000815260040161039f90611455565b60405180910390fd5b600282815481106103bc576103bb611475565b5b90600052602060002090600402016040518060800160405290816000820160009054906101000a900473ffffffffffffffffffffffffffffffffffffffff1673ffffffffffffffffffffffffffffffffffffffff1673ffffffffffffffffffffffffffffffffffffffff16815260200160018201805461043b906113d8565b80601f0160208091040260200160405190810160405280929190818152602001828054610467906113d8565b80156104b45780601f10610489576101008083540402835291602001916104b4565b820191906000526020600020905b81548152906001019060200180831161049757829003601f168201915b505050505081526020016002820180546104cd906113d8565b80601f01602080910402602001604051908101604052809291908181526020018280546104f9906113d8565b80156105465780601f1061051b57610100808354040283529160200191610546565b820191906000526020600020905b81548152906001019060200180831161052957829003601f168201915b5050505050815260200160038201805461055f906113d8565b80601f016020809104026020016040519081016040528092919081815260200182805461058b906113d8565b80156105d85780601f106105ad576101008083540402835291602001916105d8565b820191906000526020600020905b8154815290600101906020018083116105bb57829003601f168201915b5050505050815250509050919050565b6105f0610d06565b73ffffffffffffffffffffffffffffffffffffffff1661060e610be6565b73ffffffffffffffffffffffffffffffffffffffff1614610664576040517f08c379a000000000000000000000000000000000000000000000000000000000815260040161065b906114f0565b60405180910390fd5b61066e6000610d0e565b565b600160009054906101000a900473ffffffffffffffffffffffffffffffffffffffff1673ffffffffffffffffffffffffffffffffffffffff166391d14854600160009054906101000a900473ffffffffffffffffffffffffffffffffffffffff1673ffffffffffffffffffffffffffffffffffffffff166361cc07666040518163ffffffff1660e01b8152600401602060405180830381865afa15801561071b573d6000803e3d6000fd5b505050506040513d601f19601f8201168201806040525081019061073f9190611546565b336040518363ffffffff1660e01b815260040161075d929190611582565b602060405180830381865afa15801561077a573d6000803e3d6000fd5b505050506040513d601f19601f8201168201806040525081019061079e91906115e3565b6107dd576040517f08c379a00000000000000000000000000000000000000000000000000000000081526004016107d490611682565b60405180910390fd5b600260405180608001604052803373ffffffffffffffffffffffffffffffffffffffff16815260200185815260200184815260200183815250908060018154018082558091505060019003906000526020600020906004020160009091909190915060008201518160000160006101000a81548173ffffffffffffffffffffffffffffffffffffffff021916908373ffffffffffffffffffffffffffffffffffffffff160217905550602082015181600101908161089b919061184e565b5060408201518160020190816108b1919061184e565b5060608201518160030190816108c7919061184e565b505050600060016002805490506108de919061194f565b90503373ffffffffffffffffffffffffffffffffffffffff16817fd2d1074c4f6aadcdd54c1142a446382f128825bf8f733c953653977563b20ee886868660405161092b93929190611983565b60405180910390a350505050565b6002805490508410610980576040517f08c379a000000000000000000000000000000000000000000000000000000000815260040161097790611455565b60405180910390fd5b60006002858154811061099657610995611475565b5b906000526020600020906004020190508060000160009054906101000a900473ffffffffffffffffffffffffffffffffffffffff1673ffffffffffffffffffffffffffffffffffffffff163373ffffffffffffffffffffffffffffffffffffffff161480610b2e5750600160009054906101000a900473ffffffffffffffffffffffffffffffffffffffff1673ffffffffffffffffffffffffffffffffffffffff166391d14854600160009054906101000a900473ffffffffffffffffffffffffffffffffffffffff1673ffffffffffffffffffffffffffffffffffffffff1663a853211a6040518163ffffffff1660e01b8152600401602060405180830381865afa158015610aaa573d6000803e3d6000fd5b505050506040513d601f19601f82011682018060405250810190610ace9190611546565b336040518363ffffffff1660e01b8152600401610aec929190611582565b602060405180830381865afa158015610b09573d6000803e3d6000fd5b505050506040513d601f19601f82011682018060405250810190610b2d91906115e3565b5b610b6d576040517f08c379a0000000000000000000000000000000000000000000000000000000008152600401610b6490611a41565b60405180910390fd5b83816001019081610b7e919061184e565b5082816002019081610b90919061184e565b5081816003019081610ba2919061184e565b50847f5a1a9ae8e97ff23db89528b3163c128f82e403df5cce1ac63664dfce8b6629e5858585604051610bd793929190611983565b60405180910390a25050505050565b60008060009054906101000a900473ffffffffffffffffffffffffffffffffffffffff16905090565b610c17610d06565b73ffffffffffffffffffffffffffffffffffffffff16610c35610be6565b73ffffffffffffffffffffffffffffffffffffffff1614610c8b576040517f08c379a0000000000000000000000000000000000000000000000000000000008152600401610c82906114f0565b60405180910390fd5b600073ffffffffffffffffffffffffffffffffffffffff168173ffffffffffffffffffffffffffffffffffffffff1603610cfa576040517f08c379a0000000000000000000000000000000000000000000000000000000008152600401610cf190611ad3565b60405180910390fd5b610d0381610d0e565b50565b600033905090565b60008060009054906101000a900473ffffffffffffffffffffffffffffffffffffffff169050816000806101000a81548173ffffffffffffffffffffffffffffffffffffffff021916908373ffffffffffffffffffffffffffffffffffffffff1602179055508173ffffffffffffffffffffffffffffffffffffffff168173ffffffffffffffffffffffffffffffffffffffff167f8be0079c531659141344cd1fd0a4f28419497f9722a3daafe3b4186f6b6457e060405160405180910390a35050565b6040518060800160405280600073ffffffffffffffffffffffffffffffffffffffff1681526020016060815260200160608152602001606081525090565b6000604051905090565b600080fd5b600080fd5b6000819050919050565b610e3781610e24565b8114610e4257600080fd5b50565b600081359050610e5481610e2e565b92915050565b600060208284031215610e7057610e6f610e1a565b5b6000610e7e84828501610e45565b91505092915050565b600073ffffffffffffffffffffffffffffffffffffffff82169050919050565b6000610eb282610e87565b9050919050565b610ec281610ea7565b82525050565b600081519050919050565b600082825260208201905092915050565b60005b83811015610f02578082015181840152602081019050610ee7565b60008484015250505050565b6000601f19601f8301169050919050565b6000610f2a82610ec8565b610f348185610ed3565b9350610f44818560208601610ee4565b610f4d81610f0e565b840191505092915050565b6000608082019050610f6d6000830187610eb9565b8181036020830152610f7f8186610f1f565b90508181036040830152610f938185610f1f565b90508181036060830152610fa78184610f1f565b905095945050505050565b610fbb81610ea7565b82525050565b600082825260208201905092915050565b6000610fdd82610ec8565b610fe78185610fc1565b9350610ff7818560208601610ee4565b61100081610f0e565b840191505092915050565b60006080830160008301516110236000860182610fb2565b506020830151848203602086015261103b8282610fd2565b915050604083015184820360408601526110558282610fd2565b9150506060830151848203606086015261106f8282610fd2565b9150508091505092915050565b60006020820190508181036000830152611096818461100b565b905092915050565b600080fd5b600080fd5b7f4e487b7100000000000000000000000000000000000000000000000000000000600052604160045260246000fd5b6110e082610f0e565b810181811067ffffffffffffffff821117156110ff576110fe6110a8565b5b80604052505050565b6000611112610e10565b905061111e82826110d7565b919050565b600067ffffffffffffffff82111561113e5761113d6110a8565b5b61114782610f0e565b9050602081019050919050565b82818337600083830152505050565b600061117661117184611123565b611108565b905082815260208101848484011115611192576111916110a3565b5b61119d848285611154565b509392505050565b600082601f8301126111ba576111b961109e565b5b81356111ca848260208601611163565b91505092915050565b6000806000606084860312156111ec576111eb610e1a565b5b600084013567ffffffffffffffff81111561120a57611209610e1f565b5b611216868287016111a5565b935050602084013567ffffffffffffffff81111561123757611236610e1f565b5b611243868287016111a5565b925050604084013567ffffffffffffffff81111561126457611263610e1f565b5b611270868287016111a5565b9150509250925092565b6000806000806080858703121561129457611293610e1a565b5b60006112a287828801610e45565b945050602085013567ffffffffffffffff8111156112c3576112c2610e1f565b5b6112cf878288016111a5565b935050604085013567ffffffffffffffff8111156112f0576112ef610e1f565b5b6112fc878288016111a5565b925050606085013567ffffffffffffffff81111561131d5761131c610e1f565b5b611329878288016111a5565b91505092959194509250565b600060208201905061134a6000830184610eb9565b92915050565b61135981610ea7565b811461136457600080fd5b50565b60008135905061137681611350565b92915050565b60006020828403121561139257611391610e1a565b5b60006113a084828501611367565b91505092915050565b7f4e487b7100000000000000000000000000000000000000000000000000000000600052602260045260246000fd5b600060028204905060018216806113f057607f821691505b602082108103611403576114026113a9565b5b50919050565b7f4d6f64656c20646f6573206e6f742065786973742e0000000000000000000000600082015250565b600061143f601583610ed3565b915061144a82611409565b602082019050919050565b6000602082019050818103600083015261146e81611432565b9050919050565b7f4e487b7100000000000000000000000000000000000000000000000000000000600052603260045260246000fd5b7f4f776e61626c653a2063616c6c6572206973206e6f7420746865206f776e6572600082015250565b60006114da602083610ed3565b91506114e5826114a4565b602082019050919050565b60006020820190508181036000830152611509816114cd565b9050919050565b6000819050919050565b61152381611510565b811461152e57600080fd5b50565b6000815190506115408161151a565b92915050565b60006020828403121561155c5761155b610e1a565b5b600061156a84828501611531565b91505092915050565b61157c81611510565b82525050565b60006040820190506115976000830185611573565b6115a46020830184610eb9565b9392505050565b60008115159050919050565b6115c0816115ab565b81146115cb57600080fd5b50565b6000815190506115dd816115b7565b92915050565b6000602082840312156115f9576115f8610e1a565b5b6000611607848285016115ce565b91505092915050565b7f43616c6c657220646f6573206e6f7420686176652075706c6f6164657220726f60008201527f6c65000000000000000000000000000000000000000000000000000000000000602082015250565b600061166c602283610ed3565b915061167782611610565b604082019050919050565b6000602082019050818103600083015261169b8161165f565b9050919050565b60008190508160005260206000209050919050565b60006020601f8301049050919050565b600082821b905092915050565b6000600883026117047fffffffffffffffffffffffffffffffffffffffffffffffffffffffffffffffff826116c7565b61170e86836116c7565b95508019841693508086168417925050509392505050565b6000819050919050565b600061174b61174661174184610e24565b611726565b610e24565b9050919050565b6000819050919050565b61176583611730565b61177961177182611752565b8484546116d4565b825550505050565b600090565b61178e611781565b61179981848461175c565b505050565b5b818110156117bd576117b2600082611786565b60018101905061179f565b5050565b601f821115611802576117d3816116a2565b6117dc846116b7565b810160208510156117eb578190505b6117ff6117f7856116b7565b83018261179e565b50505b505050565b600082821c905092915050565b600061182560001984600802611807565b1980831691505092915050565b600061183e8383611814565b9150826002028217905092915050565b61185782610ec8565b67ffffffffffffffff8111156118705761186f6110a8565b5b61187a82546113d8565b6118858282856117c1565b600060209050601f8311600181146118b857600084156118a6578287015190505b6118b08582611832565b865550611918565b601f1984166118c6866116a2565b60005b828110156118ee578489015182556001820191506020850194506020810190506118c9565b8683101561190b5784890151611907601f891682611814565b8355505b6001600288020188555050505b505050505050565b7f4e487b7100000000000000000000000000000000000000000000000000000000600052601160045260246000fd5b600061195a82610e24565b915061196583610e24565b925082820390508181111561197d5761197c611920565b5b92915050565b6000606082019050818103600083015261199d8186610f1f565b905081810360208301526119b18185610f1f565b905081810360408301526119c58184610f1f565b9050949350505050565b7f43616c6c6572206973206e6f74206f776e6572206e6f7220686173206564697460008201527f6f7220726f6c6500000000000000000000000000000000000000000000000000602082015250565b6000611a2b602783610ed3565b9150611a36826119cf565b604082019050919050565b60006020820190508181036000830152611a5a81611a1e565b9050919050565b7f4f776e61626c653a206e6577206f776e657220697320746865207a65726f206160008201527f6464726573730000000000000000000000000000000000000000000000000000602082015250565b6000611abd602683610ed3565b9150611ac882611a61565b604082019050919050565b60006020820190508181036000830152611aec81611ab0565b905091905056fea264697066735822122082ce698944a530958b57652e3c909112509cc924328407624617b636bb1d94a964736f6c63430008140033",
  "linkReferences": {},
  "deployedLinkReferences": {}
}