{
  "_format": "hh-sol-artifact-1",
  "contractName": "AccessControlContract",
  "sourceName": "contracts/AccessControlContract.sol",
  "abi": [
    {
      "inputs": [
        {
          "internalType": "address",
          "name": "initialOwner",
          "type": "address"
        }
      ],
      "stateMutability": "nonpayable",
      "type": "constructor"
    },
    {
      "anonymous": false,
      "inputs": [
        {
          "indexed": true,
          "internalType": "address",
          "name": "previousOwner",
          "type": "address"
        },
        {
          "indexed": true,
          "internalType": "address",
          "name": "newOwner",
          "type": "address"
        }
      ],
      "name": "OwnershipTransferred",
      "type": "event"
    },
    {
      "anonymous": false,
      "inputs": [
        {
          "indexed": true,
          "internalType": "bytes32",
          "name": "role",
          "type": "bytes32"
        },
        {
          "indexed": true,
          "internalType": "bytes32",
          "name": "previousAdminRole",
          "type": "bytes32"
        },
        {
          "indexed": true,
          "internalType": "bytes32",
          "name": "newAdminRole",
          "type": "bytes32"
        }
      ],
      "name": "RoleAdminChanged",
      "type": "event"
    },
    {
      "anonymous": false,
      "inputs": [
        {
          "indexed": true,
          "internalType": "bytes32",
          "name": "role",
          "type": "bytes32"
        },
        {
          "indexed": true,
          "internalType": "address",
          "name": "account",
          "type": "address"
        },
        {
          "indexed": true,
          "internalType": "address",
          "name": "sender",
          "type": "address"
        }
      ],
      "name": "RoleGranted",
      "type": "event"
    },
    {
      "anonymous": false,
      "inputs": [
        {
          "indexed": true,
          "internalType": "bytes32",
          "name": "role",
          "type": "bytes32"
        },
        {
          "indexed": true,
          "internalType": "address",
          "name": "account",
          "type": "address"
        },
        {
          "indexed": true,
          "internalType": "address",
          "name": "sender",
          "type": "address"
        }
      ],
      "name": "RoleRevoked",
      "type": "event"
    },
    {
      "inputs": [],
      "name": "DEFAULT_ADMIN_ROLE",
      "outputs": [
        {
          "internalType": "bytes32",
          "name": "",
          "type": "bytes32"
        }
      ],
      "stateMutability": "view",
      "type": "function"
    },
    {
      "inputs": [],
      "name": "EDITOR_ROLE",
      "outputs": [
        {
          "internalType": "bytes32",
          "name": "",
          "type": "bytes32"
        }
      ],
      "stateMutability": "view",
      "type": "function"
    },
    {
      "inputs": [],
      "name": "UPLOADER_ROLE",
      "outputs": [
        {
          "internalType": "bytes32",
          "name": "",
          "type": "bytes32"
        }
      ],
      "stateMutability": "view",
      "type": "function"
    },
    {
      "inputs": [
        {
          "internalType": "bytes32",
          "name": "role",
          "type": "bytes32"
        }
      ],
      "name": "getRoleAdmin",
      "outputs": [
        {
          "internalType": "bytes32",
          "name": "",
          "type": "bytes32"
        }
      ],
      "stateMutability": "view",
      "type": "function"
    },
    {
      "inputs": [
        {
          "internalType": "bytes32",
          "name": "role",
          "type": "bytes32"
        },
        {
          "internalType": "address",
          "name": "account",
          "type": "address"
        }
      ],
      "name": "grantRole",
      "outputs": [],
      "stateMutability": "nonpayable",
      "type": "function"
    },
    {
      "inputs": [
        {
          "internalType": "bytes32",
          "name": "role",
          "type": "bytes32"
        },
        {
          "internalType": "address",
          "name": "account",
          "type": "address"
        }
      ],
      "name": "hasRole",
      "outputs": [
        {
          "internalType": "bool",
          "name": "",
          "type": "bool"
        }
      ],
      "stateMutability": "view",
      "type": "function"
    },
    {
      "inputs": [],
      "name": "owner",
      "outputs": [
        {
          "internalType": "address",
          "name": "",
          "type": "address"
        }
      ],
      "stateMutability": "view",
      "type": "function"
    },
    {
      "inputs": [],
      "name": "renounceOwnership",
      "outputs": [],
      "stateMutability": "nonpayable",
      "type": "function"
    },
    {
      "inputs": [
        {
          "internalType": "bytes32",
          "name": "role",
          "type": "bytes32"
        },
        {
          "internalType": "address",
          "name": "account",
          "type": "address"
        }
      ],
      "name": "renounceRole",
      "outputs": [],
      "stateMutability": "nonpayable",
      "type": "function"
    },
    {
      "inputs": [
        {
          "internalType": "bytes32",
          "name": "role",
          "type": "bytes32"
        },
        {
          "internalType": "address",
          "name": "account",
          "type": "address"
        }
      ],
      "name": "revokeRole",
      "outputs": [],
      "stateMutability": "nonpayable",
      "type": "function"
    },
    {
      "inputs": [
        {
          "internalType": "bytes4",
          "name": "interfaceId",
          "type": "bytes4"
        }
      ],
      "name": "supportsInterface",
      "outputs": [
        {
          "internalType": "bool",
          "name": "",
          "type": "bool"
        }
      ],
      "stateMutability": "view",
      "type": "function"
    },
    {
      "inputs": [
        {
          "internalType": "address",
          "name": "newOwner",
          "type": "address"
        }
      ],
      "name": "transferOwnership",
      "outputs": [],
      "stateMutability": "nonpayable",
      "type": "function"
    }
  ],
  "bytecode": "0x60806040523480156200001157600080fd5b5060405162001a8838038062001a88833981810160405281019062000037919062000584565b620000576200004b620000ee60201b60201c565b620000f660201b60201c565b6200006881620001bc60201b60201c565b6200007d6000801b82620002d160201b60201c565b620000b27f922390b27f65d828a1f7695b2eaae33fd0be87496792afddba1d25446a8fcb916000801b620002e760201b60201c565b620000e77f21d1167972f621f75904fb065136bc8b53c7ba1c60ccd3a7758fbee465851e9c6000801b620002e760201b60201c565b50620006d1565b600033905090565b6000600160009054906101000a900473ffffffffffffffffffffffffffffffffffffffff16905081600160006101000a81548173ffffffffffffffffffffffffffffffffffffffff021916908373ffffffffffffffffffffffffffffffffffffffff1602179055508173ffffffffffffffffffffffffffffffffffffffff168173ffffffffffffffffffffffffffffffffffffffff167f8be0079c531659141344cd1fd0a4f28419497f9722a3daafe3b4186f6b6457e060405160405180910390a35050565b620001cc620000ee60201b60201c565b73ffffffffffffffffffffffffffffffffffffffff16620001f2620002fd60201b60201c565b73ffffffffffffffffffffffffffffffffffffffff16146200024b576040517f08c379a0000000000000000000000000000000000000000000000000000000008152600401620002429062000617565b60405180910390fd5b600073ffffffffffffffffffffffffffffffffffffffff168173ffffffffffffffffffffffffffffffffffffffff1603620002bd576040517f08c379a0000000000000000000000000000000000000000000000000000000008152600401620002b490620006af565b60405180910390fd5b620002ce81620000f660201b60201c565b50565b620002e382826200032760201b60201c565b5050565b620002f982826200033d60201b60201c565b5050565b6000600160009054906101000a900473ffffffffffffffffffffffffffffffffffffffff16905090565b620003398282620003a060201b60201c565b5050565b600062000350836200049160201b60201c565b905081600080858152602001908152602001600020600101819055508181847fbd79b86ffe0ab8e8776151514217cd7cacd52c909f66475c3af44e129f0b00ff60405160405180910390a4505050565b620003b28282620004b060201b60201c565b6200048d57600160008084815260200190815260200160002060000160008373ffffffffffffffffffffffffffffffffffffffff1673ffffffffffffffffffffffffffffffffffffffff16815260200190815260200160002060006101000a81548160ff02191690831515021790555062000432620000ee60201b60201c565b73ffffffffffffffffffffffffffffffffffffffff168173ffffffffffffffffffffffffffffffffffffffff16837f2f8788117e7eff1d82e926ec794901d17c78024a50270940304540a733656f0d60405160405180910390a45b5050565b6000806000838152602001908152602001600020600101549050919050565b600080600084815260200190815260200160002060000160008373ffffffffffffffffffffffffffffffffffffffff1673ffffffffffffffffffffffffffffffffffffffff16815260200190815260200160002060009054906101000a900460ff16905092915050565b600080fd5b600073ffffffffffffffffffffffffffffffffffffffff82169050919050565b60006200054c826200051f565b9050919050565b6200055e816200053f565b81146200056a57600080fd5b50565b6000815190506200057e8162000553565b92915050565b6000602082840312156200059d576200059c6200051a565b5b6000620005ad848285016200056d565b91505092915050565b600082825260208201905092915050565b7f4f776e61626c653a2063616c6c6572206973206e6f7420746865206f776e6572600082015250565b6000620005ff602083620005b6565b91506200060c82620005c7565b602082019050919050565b600060208201905081810360008301526200063281620005f0565b9050919050565b7f4f776e61626c653a206e6577206f776e657220697320746865207a65726f206160008201527f6464726573730000000000000000000000000000000000000000000000000000602082015250565b600062000697602683620005b6565b9150620006a48262000639565b604082019050919050565b60006020820190508181036000830152620006ca8162000688565b9050919050565b6113a780620006e16000396000f3fe608060405234801561001057600080fd5b50600436106100b45760003560e01c80638da5cb5b116100715780638da5cb5b1461017957806391d1485414610197578063a217fddf146101c7578063a853211a146101e5578063d547741f14610203578063f2fde38b1461021f576100b4565b806301ffc9a7146100b9578063248a9ca3146100e95780632f2ff15d1461011957806336568abe1461013557806361cc076614610151578063715018a61461016f575b600080fd5b6100d360048036038101906100ce9190610c9a565b61023b565b6040516100e09190610ce2565b60405180910390f35b61010360048036038101906100fe9190610d33565b6102b5565b6040516101109190610d6f565b60405180910390f35b610133600480360381019061012e9190610de8565b6102d4565b005b61014f600480360381019061014a9190610de8565b6102fd565b005b61015961030b565b6040516101669190610d6f565b60405180910390f35b61017761032f565b005b6101816103b7565b60405161018e9190610e37565b60405180910390f35b6101b160048036038101906101ac9190610de8565b6103e1565b6040516101be9190610ce2565b60405180910390f35b6101cf61044b565b6040516101dc9190610d6f565b60405180910390f35b6101ed610452565b6040516101fa9190610d6f565b60405180910390f35b61021d60048036038101906102189190610de8565b610476565b005b61023960048036038101906102349190610e52565b61049f565b005b60007f7965db0b000000000000000000000000000000000000000000000000000000007bffffffffffffffffffffffffffffffffffffffffffffffffffffffff1916827bffffffffffffffffffffffffffffffffffffffffffffffffffffffff191614806102ae57506102ad82610596565b5b9050919050565b6000806000838152602001908152602001600020600101549050919050565b6102dd826102b5565b6102ee816102e9610600565b610608565b6102f883836106a5565b505050565b61030782826106ce565b5050565b7f922390b27f65d828a1f7695b2eaae33fd0be87496792afddba1d25446a8fcb9181565b610337610600565b73ffffffffffffffffffffffffffffffffffffffff166103556103b7565b73ffffffffffffffffffffffffffffffffffffffff16146103ab576040517f08c379a00000000000000000000000000000000000000000000000000000000081526004016103a290610edc565b60405180910390fd5b6103b56000610751565b565b6000600160009054906101000a900473ffffffffffffffffffffffffffffffffffffffff16905090565b600080600084815260200190815260200160002060000160008373ffffffffffffffffffffffffffffffffffffffff1673ffffffffffffffffffffffffffffffffffffffff16815260200190815260200160002060009054906101000a900460ff16905092915050565b6000801b81565b7f21d1167972f621f75904fb065136bc8b53c7ba1c60ccd3a7758fbee465851e9c81565b61047f826102b5565b6104908161048b610600565b610608565b61049a8383610817565b505050565b6104a7610600565b73ffffffffffffffffffffffffffffffffffffffff166104c56103b7565b73ffffffffffffffffffffffffffffffffffffffff161461051b576040517f08c379a000000000000000000000000000000000000000000000000000000000815260040161051290610edc565b60405180910390fd5b600073ffffffffffffffffffffffffffffffffffffffff168173ffffffffffffffffffffffffffffffffffffffff160361058a576040517f08c379a000000000000000000000000000000000000000000000000000000000815260040161058190610f6e565b60405180910390fd5b61059381610751565b50565b60007f01ffc9a7000000000000000000000000000000000000000000000000000000007bffffffffffffffffffffffffffffffffffffffffffffffffffffffff1916827bffffffffffffffffffffffffffffffffffffffffffffffffffffffff1916149050919050565b600033905090565b61061282826103e1565b6106a1576106378173ffffffffffffffffffffffffffffffffffffffff166014610840565b6106458360001c6020610840565b604051602001610656929190611097565b6040516020818303038152906040526040517f08c379a0000000000000000000000000000000000000000000000000000000008152600401610698919061111b565b60405180910390fd5b5050565b6106ae826102b5565b6106bf816106ba610600565b610608565b6106c98383610a7c565b505050565b6106d6610600565b73ffffffffffffffffffffffffffffffffffffffff168173ffffffffffffffffffffffffffffffffffffffff1614610743576040517f08c379a000000000000000000000000000000000000000000000000000000000815260040161073a906111af565b60405180910390fd5b61074d8282610b5c565b5050565b6000600160009054906101000a900473ffffffffffffffffffffffffffffffffffffffff16905081600160006101000a81548173ffffffffffffffffffffffffffffffffffffffff021916908373ffffffffffffffffffffffffffffffffffffffff1602179055508173ffffffffffffffffffffffffffffffffffffffff168173ffffffffffffffffffffffffffffffffffffffff167f8be0079c531659141344cd1fd0a4f28419497f9722a3daafe3b4186f6b6457e060405160405180910390a35050565b610820826102b5565b6108318161082c610600565b610608565b61083b8383610b5c565b505050565b6060600060028360026108539190611208565b61085d919061124a565b67ffffffffffffffff8111156108765761087561127e565b5b6040519080825280601f01601f1916602001820160405280156108a85781602001600182028036833780820191505090505b5090507f3000000000000000000000000000000000000000000000000000000000000000816000815181106108e0576108df6112ad565b5b60200101907effffffffffffffffffffffffffffffffffffffffffffffffffffffffffffff1916908160001a9053507f780000000000000000000000000000000000000000000000000000000000000081600181518110610944576109436112ad565b5b60200101907effffffffffffffffffffffffffffffffffffffffffffffffffffffffffffff1916908160001a905350600060018460026109849190611208565b61098e919061124a565b90505b6001811115610a2e577f3031323334353637383961626364656600000000000000000000000000000000600f8616601081106109d0576109cf6112ad565b5b1a60f81b8282815181106109e7576109e66112ad565b5b60200101907effffffffffffffffffffffffffffffffffffffffffffffffffffffffffffff1916908160001a905350600485901c945080610a27906112dc565b9050610991565b5060008414610a72576040517f08c379a0000000000000000000000000000000000000000000000000000000008152600401610a6990611351565b60405180910390fd5b8091505092915050565b610a8682826103e1565b610b5857600160008084815260200190815260200160002060000160008373ffffffffffffffffffffffffffffffffffffffff1673ffffffffffffffffffffffffffffffffffffffff16815260200190815260200160002060006101000a81548160ff021916908315150217905550610afd610600565b73ffffffffffffffffffffffffffffffffffffffff168173ffffffffffffffffffffffffffffffffffffffff16837f2f8788117e7eff1d82e926ec794901d17c78024a50270940304540a733656f0d60405160405180910390a45b5050565b610b6682826103e1565b15610c3957600080600084815260200190815260200160002060000160008373ffffffffffffffffffffffffffffffffffffffff1673ffffffffffffffffffffffffffffffffffffffff16815260200190815260200160002060006101000a81548160ff021916908315150217905550610bde610600565b73ffffffffffffffffffffffffffffffffffffffff168173ffffffffffffffffffffffffffffffffffffffff16837ff6391f5c32d9c69d2a47ea670b442974b53935d1edc7fd64eb21e047a839171b60405160405180910390a45b5050565b600080fd5b60007fffffffff0000000000000000000000000000000000000000000000000000000082169050919050565b610c7781610c42565b8114610c8257600080fd5b50565b600081359050610c9481610c6e565b92915050565b600060208284031215610cb057610caf610c3d565b5b6000610cbe84828501610c85565b91505092915050565b60008115159050919050565b610cdc81610cc7565b82525050565b6000602082019050610cf76000830184610cd3565b92915050565b6000819050919050565b610d1081610cfd565b8114610d1b57600080fd5b50565b600081359050610d2d81610d07565b92915050565b600060208284031215610d4957610d48610c3d565b5b6000610d5784828501610d1e565b91505092915050565b610d6981610cfd565b82525050565b6000602082019050610d846000830184610d60565b92915050565b600073ffffffffffffffffffffffffffffffffffffffff82169050919050565b6000610db582610d8a565b9050919050565b610dc581610daa565b8114610dd057600080fd5b50565b600081359050610de281610dbc565b92915050565b60008060408385031215610dff57610dfe610c3d565b5b6000610e0d85828601610d1e565b9250506020610e1e85828601610dd3565b9150509250929050565b610e3181610daa565b82525050565b6000602082019050610e4c6000830184610e28565b92915050565b600060208284031215610e6857610e67610c3d565b5b6000610e7684828501610dd3565b91505092915050565b600082825260208201905092915050565b7f4f776e61626c653a2063616c6c6572206973206e6f7420746865206f776e6572600082015250565b6000610ec6602083610e7f565b9150610ed182610e90565b602082019050919050565b60006020820190508181036000830152610ef581610eb9565b9050919050565b7f4f776e61626c653a206e6577206f776e657220697320746865207a65726f206160008201527f6464726573730000000000000000000000000000000000000000000000000000602082015250565b6000610f58602683610e7f565b9150610f6382610efc565b604082019050919050565b60006020820190508181036000830152610f8781610f4b565b9050919050565b600081905092915050565b7f416363657373436f6e74726f6c3a206163636f756e7420000000000000000000600082015250565b6000610fcf601783610f8e565b9150610fda82610f99565b601782019050919050565b600081519050919050565b60005b8381101561100e578082015181840152602081019050610ff3565b60008484015250505050565b600061102582610fe5565b61102f8185610f8e565b935061103f818560208601610ff0565b80840191505092915050565b7f206973206d697373696e6720726f6c6520000000000000000000000000000000600082015250565b6000611081601183610f8e565b915061108c8261104b565b601182019050919050565b60006110a282610fc2565b91506110ae828561101a565b91506110b982611074565b91506110c5828461101a565b91508190509392505050565b6000601f19601f8301169050919050565b60006110ed82610fe5565b6110f78185610e7f565b9350611107818560208601610ff0565b611110816110d1565b840191505092915050565b6000602082019050818103600083015261113581846110e2565b905092915050565b7f416363657373436f6e74726f6c3a2063616e206f6e6c792072656e6f756e636560008201527f20726f6c657320666f722073656c660000000000000000000000000000000000602082015250565b6000611199602f83610e7f565b91506111a48261113d565b604082019050919050565b600060208201905081810360008301526111c88161118c565b9050919050565b6000819050919050565b7f4e487b7100000000000000000000000000000000000000000000000000000000600052601160045260246000fd5b6000611213826111cf565b915061121e836111cf565b925082820261122c816111cf565b91508282048414831517611243576112426111d9565b5b5092915050565b6000611255826111cf565b9150611260836111cf565b9250828201905080821115611278576112776111d9565b5b92915050565b7f4e487b7100000000000000000000000000000000000000000000000000000000600052604160045260246000fd5b7f4e487b7100000000000000000000000000000000000000000000000000000000600052603260045260246000fd5b60006112e7826111cf565b9150600082036112fa576112f96111d9565b5b600182039050919050565b7f537472696e67733a20686578206c656e67746820696e73756666696369656e74600082015250565b600061133b602083610e7f565b915061134682611305565b602082019050919050565b6000602082019050818103600083015261136a8161132e565b905091905056fea264697066735822122064514f6309f717942d898975054f8b76d042ff461fd9f980115e2f1ff627322c64736f6c63430008140033",
  "linkReferences": {},
  "deployedLinkReferences": {}
}