{
  "_format": "hh-sol-artifact-1",
  "contractName": "ModelDeploymentContract",
  "sourceName": "contracts/ModelDeploymentContract.sol",
  "abi": [
    {
      "inputs": [],
      "stateMutability": "nonpayable",
      "type": "constructor"
    },
    {
      "anonymous": false,
      "inputs": [
        {
          "indexed": true,
          "internalType": "uint256",
          "name": "modelId",
          "type": "uint256"
        },
        {
          "indexed": true,
          "internalType": "address",
          "name": "owner",
          "type": "address"
        },
        {
          "indexed": false,
          "internalType": "string",
          "name": "ipfsHash",
          "type": "string"
        },
        {
          "indexed": false,
          "internalType": "string",
          "name": "metadata",
          "type": "string"
        }
      ],
      "name": "ModelDeployed",
      "type": "event"
    },
    {
      "anonymous": false,
      "inputs": [
        {
          "indexed": true,
          "internalType": "uint256",
          "name": "modelId",
          "type": "uint256"
        },
        {
          "indexed": false,
          "internalType": "bool",
          "name": "isActive",
          "type": "bool"
        }
      ],
      "name": "ModelStatusUpdated",
      "type": "event"
    },
    {
      "anonymous": false,
      "inputs": [
        {
          "indexed": true,
          "internalType": "address",
          "name": "previousOwner",
          "type": "address"
        },
        {
          "indexed": true,
          "internalType": "address",
          "name": "newOwner",
          "type": "address"
        }
      ],
      "name": "OwnershipTransferred",
      "type": "event"
    },
    {
      "inputs": [
        {
          "internalType": "string",
          "name": "ipfsHash",
          "type": "string"
        },
        {
          "internalType": "string",
          "name": "metadata",
          "type": "string"
        }
      ],
      "name": "deployModel",
      "outputs": [],
      "stateMutability": "nonpayable",
      "type": "function"
    },
    {
      "inputs": [
        {
          "internalType": "uint256",
          "name": "",
          "type": "uint256"
        }
      ],
      "name": "deployedModels",
      "outputs": [
        {
          "internalType": "address",
          "name": "owner",
          "type": "address"
        },
        {
          "internalType": "string",
          "name": "ipfsHash",
          "type": "string"
        },
        {
          "internalType": "string",
          "name": "metadata",
          "type": "string"
        },
        {
          "internalType": "bool",
          "name": "isActive",
          "type": "bool"
        }
      ],
      "stateMutability": "view",
      "type": "function"
    },
    {
      "inputs": [
        {
          "internalType": "uint256",
          "name": "modelId",
          "type": "uint256"
        }
      ],
      "name": "getDeployedModel",
      "outputs": [
        {
          "components": [
            {
              "internalType": "address",
              "name": "owner",
              "type": "address"
            },
            {
              "internalType": "string",
              "name": "ipfsHash",
              "type": "string"
            },
            {
              "internalType": "string",
              "name": "metadata",
              "type": "string"
            },
            {
              "internalType": "bool",
              "name": "isActive",
              "type": "bool"
            }
          ],
          "internalType": "struct ModelDeploymentContract.DeployedModel",
          "name": "",
          "type": "tuple"
        }
      ],
      "stateMutability": "view",
      "type": "function"
    },
    {
      "inputs": [],
      "name": "owner",
      "outputs": [
        {
          "internalType": "address",
          "name": "",
          "type": "address"
        }
      ],
      "stateMutability": "view",
      "type": "function"
    },
    {
      "inputs": [],
      "name": "renounceOwnership",
      "outputs": [],
      "stateMutability": "nonpayable",
      "type": "function"
    },
    {
      "inputs": [
        {
          "internalType": "address",
          "name": "newOwner",
          "type": "address"
        }
      ],
      "name": "transferOwnership",
      "outputs": [],
      "stateMutability": "nonpayable",
      "type": "function"
    },
    {
      "inputs": [
        {
          "internalType": "uint256",
          "name": "modelId",
          "type": "uint256"
        },
        {
          "internalType": "bool",
          "name": "isActive",
          "type": "bool"
        }
      ],
      "name": "updateModelStatus",
      "outputs": [],
      "stateMutability": "nonpayable",
      "type": "function"
    }
  ],
  "bytecode": "0x608060405234801561001057600080fd5b5061002d61002261003260201b60201c565b61003a60201b60201c565b6100fe565b600033905090565b60008060009054906101000a900473ffffffffffffffffffffffffffffffffffffffff169050816000806101000a81548173ffffffffffffffffffffffffffffffffffffffff021916908373ffffffffffffffffffffffffffffffffffffffff1602179055508173ffffffffffffffffffffffffffffffffffffffff168173ffffffffffffffffffffffffffffffffffffffff167f8be0079c531659141344cd1fd0a4f28419497f9722a3daafe3b4186f6b6457e060405160405180910390a35050565b6115928061010d6000396000f3fe608060405234801561001057600080fd5b506004361061007d5760003560e01c80638314a2211161005b5780638314a221146100db5780638da5cb5b1461010b578063bce6c7f514610129578063f2fde38b146101455761007d565b80630a73c23d14610082578063696f9348146100b5578063715018a6146100d1575b600080fd5b61009c60048036038101906100979190610ab1565b610161565b6040516100ac9493929190610bca565b60405180910390f35b6100cf60048036038101906100ca9190610d52565b6102de565b005b6100d9610443565b005b6100f560048036038101906100f09190610ab1565b6104cb565b6040516101029190610e9c565b60405180910390f35b6101136106e3565b6040516101209190610ebe565b60405180910390f35b610143600480360381019061013e9190610f05565b61070c565b005b61015f600480360381019061015a9190610f71565b610864565b005b6001818154811061017157600080fd5b90600052602060002090600402016000915090508060000160009054906101000a900473ffffffffffffffffffffffffffffffffffffffff16908060010180546101ba90610fcd565b80601f01602080910402602001604051908101604052809291908181526020018280546101e690610fcd565b80156102335780601f1061020857610100808354040283529160200191610233565b820191906000526020600020905b81548152906001019060200180831161021657829003601f168201915b50505050509080600201805461024890610fcd565b80601f016020809104026020016040519081016040528092919081815260200182805461027490610fcd565b80156102c15780601f10610296576101008083540402835291602001916102c1565b820191906000526020600020905b8154815290600101906020018083116102a457829003601f168201915b5050505050908060030160009054906101000a900460ff16905084565b600060405180608001604052803373ffffffffffffffffffffffffffffffffffffffff168152602001848152602001838152602001600115158152509050600181908060018154018082558091505060019003906000526020600020906004020160009091909190915060008201518160000160006101000a81548173ffffffffffffffffffffffffffffffffffffffff021916908373ffffffffffffffffffffffffffffffffffffffff16021790555060208201518160010190816103a491906111aa565b5060408201518160020190816103ba91906111aa565b5060608201518160030160006101000a81548160ff02191690831515021790555050503373ffffffffffffffffffffffffffffffffffffffff166001808054905061040591906112ab565b7f32108baf2388ad4b17cd202554a99c7cf3a419c000e25ae75199aaef51317f6585856040516104369291906112df565b60405180910390a3505050565b61044b61095b565b73ffffffffffffffffffffffffffffffffffffffff166104696106e3565b73ffffffffffffffffffffffffffffffffffffffff16146104bf576040517f08c379a00000000000000000000000000000000000000000000000000000000081526004016104b690611362565b60405180910390fd5b6104c96000610963565b565b6104d3610a27565b600180549050821061051a576040517f08c379a0000000000000000000000000000000000000000000000000000000008152600401610511906113ce565b60405180910390fd5b6001828154811061052e5761052d6113ee565b5b90600052602060002090600402016040518060800160405290816000820160009054906101000a900473ffffffffffffffffffffffffffffffffffffffff1673ffffffffffffffffffffffffffffffffffffffff1673ffffffffffffffffffffffffffffffffffffffff1681526020016001820180546105ad90610fcd565b80601f01602080910402602001604051908101604052809291908181526020018280546105d990610fcd565b80156106265780601f106105fb57610100808354040283529160200191610626565b820191906000526020600020905b81548152906001019060200180831161060957829003601f168201915b5050505050815260200160028201805461063f90610fcd565b80601f016020809104026020016040519081016040528092919081815260200182805461066b90610fcd565b80156106b85780601f1061068d576101008083540402835291602001916106b8565b820191906000526020600020905b81548152906001019060200180831161069b57829003601f168201915b505050505081526020016003820160009054906101000a900460ff1615151515815250509050919050565b60008060009054906101000a900473ffffffffffffffffffffffffffffffffffffffff16905090565b6001805490508210610753576040517f08c379a000000000000000000000000000000000000000000000000000000000815260040161074a906113ce565b60405180910390fd5b600060018381548110610769576107686113ee565b5b906000526020600020906004020190508060000160009054906101000a900473ffffffffffffffffffffffffffffffffffffffff1673ffffffffffffffffffffffffffffffffffffffff163373ffffffffffffffffffffffffffffffffffffffff161461080b576040517f08c379a00000000000000000000000000000000000000000000000000000000081526004016108029061148f565b60405180910390fd5b818160030160006101000a81548160ff021916908315150217905550827f5a1a8ba9e803b994e546404a5469e4f8d2ab031855b9b6e72b32641947e33a788360405161085791906114af565b60405180910390a2505050565b61086c61095b565b73ffffffffffffffffffffffffffffffffffffffff1661088a6106e3565b73ffffffffffffffffffffffffffffffffffffffff16146108e0576040517f08c379a00000000000000000000000000000000000000000000000000000000081526004016108d790611362565b60405180910390fd5b600073ffffffffffffffffffffffffffffffffffffffff168173ffffffffffffffffffffffffffffffffffffffff160361094f576040517f08c379a00000000000000000000000000000000000000000000000000000000081526004016109469061153c565b60405180910390fd5b61095881610963565b50565b600033905090565b60008060009054906101000a900473ffffffffffffffffffffffffffffffffffffffff169050816000806101000a81548173ffffffffffffffffffffffffffffffffffffffff021916908373ffffffffffffffffffffffffffffffffffffffff1602179055508173ffffffffffffffffffffffffffffffffffffffff168173ffffffffffffffffffffffffffffffffffffffff167f8be0079c531659141344cd1fd0a4f28419497f9722a3daafe3b4186f6b6457e060405160405180910390a35050565b6040518060800160405280600073ffffffffffffffffffffffffffffffffffffffff16815260200160608152602001606081526020016000151581525090565b6000604051905090565b600080fd5b600080fd5b6000819050919050565b610a8e81610a7b565b8114610a9957600080fd5b50565b600081359050610aab81610a85565b92915050565b600060208284031215610ac757610ac6610a71565b5b6000610ad584828501610a9c565b91505092915050565b600073ffffffffffffffffffffffffffffffffffffffff82169050919050565b6000610b0982610ade565b9050919050565b610b1981610afe565b82525050565b600081519050919050565b600082825260208201905092915050565b60005b83811015610b59578082015181840152602081019050610b3e565b60008484015250505050565b6000601f19601f8301169050919050565b6000610b8182610b1f565b610b8b8185610b2a565b9350610b9b818560208601610b3b565b610ba481610b65565b840191505092915050565b60008115159050919050565b610bc481610baf565b82525050565b6000608082019050610bdf6000830187610b10565b8181036020830152610bf18186610b76565b90508181036040830152610c058185610b76565b9050610c146060830184610bbb565b95945050505050565b600080fd5b600080fd5b7f4e487b7100000000000000000000000000000000000000000000000000000000600052604160045260246000fd5b610c5f82610b65565b810181811067ffffffffffffffff82111715610c7e57610c7d610c27565b5b80604052505050565b6000610c91610a67565b9050610c9d8282610c56565b919050565b600067ffffffffffffffff821115610cbd57610cbc610c27565b5b610cc682610b65565b9050602081019050919050565b82818337600083830152505050565b6000610cf5610cf084610ca2565b610c87565b905082815260208101848484011115610d1157610d10610c22565b5b610d1c848285610cd3565b509392505050565b600082601f830112610d3957610d38610c1d565b5b8135610d49848260208601610ce2565b91505092915050565b60008060408385031215610d6957610d68610a71565b5b600083013567ffffffffffffffff811115610d8757610d86610a76565b5b610d9385828601610d24565b925050602083013567ffffffffffffffff811115610db457610db3610a76565b5b610dc085828601610d24565b9150509250929050565b610dd381610afe565b82525050565b600082825260208201905092915050565b6000610df582610b1f565b610dff8185610dd9565b9350610e0f818560208601610b3b565b610e1881610b65565b840191505092915050565b610e2c81610baf565b82525050565b6000608083016000830151610e4a6000860182610dca565b5060208301518482036020860152610e628282610dea565b91505060408301518482036040860152610e7c8282610dea565b9150506060830151610e916060860182610e23565b508091505092915050565b60006020820190508181036000830152610eb68184610e32565b905092915050565b6000602082019050610ed36000830184610b10565b92915050565b610ee281610baf565b8114610eed57600080fd5b50565b600081359050610eff81610ed9565b92915050565b60008060408385031215610f1c57610f1b610a71565b5b6000610f2a85828601610a9c565b9250506020610f3b85828601610ef0565b9150509250929050565b610f4e81610afe565b8114610f5957600080fd5b50565b600081359050610f6b81610f45565b92915050565b600060208284031215610f8757610f86610a71565b5b6000610f9584828501610f5c565b91505092915050565b7f4e487b7100000000000000000000000000000000000000000000000000000000600052602260045260246000fd5b60006002820490506001821680610fe557607f821691505b602082108103610ff857610ff7610f9e565b5b50919050565b60008190508160005260206000209050919050565b60006020601f8301049050919050565b600082821b905092915050565b6000600883026110607fffffffffffffffffffffffffffffffffffffffffffffffffffffffffffffffff82611023565b61106a8683611023565b95508019841693508086168417925050509392505050565b6000819050919050565b60006110a76110a261109d84610a7b565b611082565b610a7b565b9050919050565b6000819050919050565b6110c18361108c565b6110d56110cd826110ae565b848454611030565b825550505050565b600090565b6110ea6110dd565b6110f58184846110b8565b505050565b5b818110156111195761110e6000826110e2565b6001810190506110fb565b5050565b601f82111561115e5761112f81610ffe565b61113884611013565b81016020851015611147578190505b61115b61115385611013565b8301826110fa565b50505b505050565b600082821c905092915050565b600061118160001984600802611163565b1980831691505092915050565b600061119a8383611170565b9150826002028217905092915050565b6111b382610b1f565b67ffffffffffffffff8111156111cc576111cb610c27565b5b6111d68254610fcd565b6111e182828561111d565b600060209050601f8311600181146112145760008415611202578287015190505b61120c858261118e565b865550611274565b601f19841661122286610ffe565b60005b8281101561124a57848901518255600182019150602085019450602081019050611225565b868310156112675784890151611263601f891682611170565b8355505b6001600288020188555050505b505050505050565b7f4e487b7100000000000000000000000000000000000000000000000000000000600052601160045260246000fd5b60006112b682610a7b565b91506112c183610a7b565b92508282039050818111156112d9576112d861127c565b5b92915050565b600060408201905081810360008301526112f98185610b76565b9050818103602083015261130d8184610b76565b90509392505050565b7f4f776e61626c653a2063616c6c6572206973206e6f7420746865206f776e6572600082015250565b600061134c602083610b2a565b915061135782611316565b602082019050919050565b6000602082019050818103600083015261137b8161133f565b9050919050565b7f4d6f64656c20646f6573206e6f742065786973742e0000000000000000000000600082015250565b60006113b8601583610b2a565b91506113c382611382565b602082019050919050565b600060208201905081810360008301526113e7816113ab565b9050919050565b7f4e487b7100000000000000000000000000000000000000000000000000000000600052603260045260246000fd5b7f43616c6c6572206973206e6f7420746865206f776e6572206f6620746865206d60008201527f6f64656c2e000000000000000000000000000000000000000000000000000000602082015250565b6000611479602583610b2a565b91506114848261141d565b604082019050919050565b600060208201905081810360008301526114a88161146c565b9050919050565b60006020820190506114c46000830184610bbb565b92915050565b7f4f776e61626c653a206e6577206f776e657220697320746865207a65726f206160008201527f6464726573730000000000000000000000000000000000000000000000000000602082015250565b6000611526602683610b2a565b9150611531826114ca565b604082019050919050565b6000602082019050818103600083015261155581611519565b905091905056fea26469706673582212200626928e440ad790e8216f519070e9b292f6fa1cf80c2368f2752b61f7243efe64736f6c63430008140033",
  "linkReferences": {},
  "deployedLinkReferences": {}
}