{
  "_format": "hh-sol-artifact-1",
  "contractName": "IPFSStorageContract",
  "sourceName": "contracts/IPFSStorageContract.sol",
  "abi": [
    {
      "anonymous": false,
      "inputs": [
        {
          "indexed": true,
          "internalType": "uint256",
          "name": "modelId",
          "type": "uint256"
        },
        {
          "indexed": true,
          "internalType": "address",
          "name": "owner",
          "type": "address"
        },
        {
          "indexed": false,
          "internalType": "string",
          "name": "ipfsHash",
          "type": "string"
        }
      ],
      "name": "ModelAdded",
      "type": "event"
    },
    {
      "anonymous": false,
      "inputs": [
        {
          "indexed": true,
          "internalType": "uint256",
          "name": "modelId",
          "type": "uint256"
        },
        {
          "indexed": false,
          "internalType": "string",
          "name": "newIpfsHash",
          "type": "string"
        }
      ],
      "name": "ModelUpdated",
      "type": "event"
    },
    {
      "inputs": [
        {
          "internalType": "uint256",
          "name": "modelId",
          "type": "uint256"
        },
        {
          "internalType": "string",
          "name": "ipfsHash",
          "type": "string"
        }
      ],
      "name": "addModel",
      "outputs": [],
      "stateMutability": "nonpayable",
      "type": "function"
    },
    {
      "inputs": [
        {
          "internalType": "uint256",
          "name": "modelId",
          "type": "uint256"
        }
      ],
      "name": "getModelIpfsHash",
      "outputs": [
        {
          "internalType": "string",
          "name": "",
          "type": "string"
        }
      ],
      "stateMutability": "view",
      "type": "function"
    },
    {
      "inputs": [
        {
          "internalType": "uint256",
          "name": "",
          "type": "uint256"
        }
      ],
      "name": "models",
      "outputs": [
        {
          "internalType": "address",
          "name": "owner",
          "type": "address"
        },
        {
          "internalType": "string",
          "name": "ipfsHash",
          "type": "string"
        }
      ],
      "stateMutability": "view",
      "type": "function"
    },
    {
      "inputs": [
        {
          "internalType": "uint256",
          "name": "modelId",
          "type": "uint256"
        },
        {
          "internalType": "string",
          "name": "newIpfsHash",
          "type": "string"
        }
      ],
      "name": "updateModel",
      "outputs": [],
      "stateMutability": "nonpayable",
      "type": "function"
    }
  ],
  "bytecode": "0x608060405234801561001057600080fd5b50610d3f806100206000396000f3fe608060405234801561001057600080fd5b506004361061004b5760003560e01c8062489eeb146100505780631cf5b14c1461006c5780636a030ca91461009c5780638916af42146100cd575b600080fd5b61006a60048036038101906100659190610726565b6100e9565b005b61008660048036038101906100819190610782565b61027d565b604051610093919061082e565b60405180910390f35b6100b660048036038101906100b19190610782565b6103c8565b6040516100c4929190610891565b60405180910390f35b6100e760048036038101906100e29190610726565b610494565b005b600073ffffffffffffffffffffffffffffffffffffffff1660008084815260200190815260200160002060000160009054906101000a900473ffffffffffffffffffffffffffffffffffffffff1673ffffffffffffffffffffffffffffffffffffffff161461018d576040517f08c379a00000000000000000000000000000000000000000000000000000000081526004016101849061090d565b60405180910390fd5b60405180604001604052803373ffffffffffffffffffffffffffffffffffffffff1681526020018281525060008084815260200190815260200160002060008201518160000160006101000a81548173ffffffffffffffffffffffffffffffffffffffff021916908373ffffffffffffffffffffffffffffffffffffffff16021790555060208201518160010190816102269190610b39565b509050503373ffffffffffffffffffffffffffffffffffffffff16827ff1cf35069418365852413fce545d30534d2083b3464e86138a347161df3d46ea83604051610271919061082e565b60405180910390a35050565b6060600073ffffffffffffffffffffffffffffffffffffffff1660008084815260200190815260200160002060000160009054906101000a900473ffffffffffffffffffffffffffffffffffffffff1673ffffffffffffffffffffffffffffffffffffffff1603610323576040517f08c379a000000000000000000000000000000000000000000000000000000000815260040161031a90610c57565b60405180910390fd5b60008083815260200190815260200160002060010180546103439061095c565b80601f016020809104026020016040519081016040528092919081815260200182805461036f9061095c565b80156103bc5780601f10610391576101008083540402835291602001916103bc565b820191906000526020600020905b81548152906001019060200180831161039f57829003601f168201915b50505050509050919050565b60006020528060005260406000206000915090508060000160009054906101000a900473ffffffffffffffffffffffffffffffffffffffff16908060010180546104119061095c565b80601f016020809104026020016040519081016040528092919081815260200182805461043d9061095c565b801561048a5780601f1061045f5761010080835404028352916020019161048a565b820191906000526020600020905b81548152906001019060200180831161046d57829003601f168201915b5050505050905082565b3373ffffffffffffffffffffffffffffffffffffffff1660008084815260200190815260200160002060000160009054906101000a900473ffffffffffffffffffffffffffffffffffffffff1673ffffffffffffffffffffffffffffffffffffffff1614610537576040517f08c379a000000000000000000000000000000000000000000000000000000000815260040161052e90610ce9565b60405180910390fd5b8060008084815260200190815260200160002060010190816105599190610b39565b50817f8ebc53783e23213a06b7bbdd0bd63b77e97af33906ce56ffe8101e3bb4fbae688260405161058a919061082e565b60405180910390a25050565b6000604051905090565b600080fd5b600080fd5b6000819050919050565b6105bd816105aa565b81146105c857600080fd5b50565b6000813590506105da816105b4565b92915050565b600080fd5b600080fd5b6000601f19601f8301169050919050565b7f4e487b7100000000000000000000000000000000000000000000000000000000600052604160045260246000fd5b610633826105ea565b810181811067ffffffffffffffff82111715610652576106516105fb565b5b80604052505050565b6000610665610596565b9050610671828261062a565b919050565b600067ffffffffffffffff821115610691576106906105fb565b5b61069a826105ea565b9050602081019050919050565b82818337600083830152505050565b60006106c96106c484610676565b61065b565b9050828152602081018484840111156106e5576106e46105e5565b5b6106f08482856106a7565b509392505050565b600082601f83011261070d5761070c6105e0565b5b813561071d8482602086016106b6565b91505092915050565b6000806040838503121561073d5761073c6105a0565b5b600061074b858286016105cb565b925050602083013567ffffffffffffffff81111561076c5761076b6105a5565b5b610778858286016106f8565b9150509250929050565b600060208284031215610798576107976105a0565b5b60006107a6848285016105cb565b91505092915050565b600081519050919050565b600082825260208201905092915050565b60005b838110156107e95780820151818401526020810190506107ce565b60008484015250505050565b6000610800826107af565b61080a81856107ba565b935061081a8185602086016107cb565b610823816105ea565b840191505092915050565b6000602082019050818103600083015261084881846107f5565b905092915050565b600073ffffffffffffffffffffffffffffffffffffffff82169050919050565b600061087b82610850565b9050919050565b61088b81610870565b82525050565b60006040820190506108a66000830185610882565b81810360208301526108b881846107f5565b90509392505050565b7f4d6f64656c20616c7265616479206578697374732e0000000000000000000000600082015250565b60006108f76015836107ba565b9150610902826108c1565b602082019050919050565b60006020820190508181036000830152610926816108ea565b9050919050565b7f4e487b7100000000000000000000000000000000000000000000000000000000600052602260045260246000fd5b6000600282049050600182168061097457607f821691505b6020821081036109875761098661092d565b5b50919050565b60008190508160005260206000209050919050565b60006020601f8301049050919050565b600082821b905092915050565b6000600883026109ef7fffffffffffffffffffffffffffffffffffffffffffffffffffffffffffffffff826109b2565b6109f986836109b2565b95508019841693508086168417925050509392505050565b6000819050919050565b6000610a36610a31610a2c846105aa565b610a11565b6105aa565b9050919050565b6000819050919050565b610a5083610a1b565b610a64610a5c82610a3d565b8484546109bf565b825550505050565b600090565b610a79610a6c565b610a84818484610a47565b505050565b5b81811015610aa857610a9d600082610a71565b600181019050610a8a565b5050565b601f821115610aed57610abe8161098d565b610ac7846109a2565b81016020851015610ad6578190505b610aea610ae2856109a2565b830182610a89565b50505b505050565b600082821c905092915050565b6000610b1060001984600802610af2565b1980831691505092915050565b6000610b298383610aff565b9150826002028217905092915050565b610b42826107af565b67ffffffffffffffff811115610b5b57610b5a6105fb565b5b610b65825461095c565b610b70828285610aac565b600060209050601f831160018114610ba35760008415610b91578287015190505b610b9b8582610b1d565b865550610c03565b601f198416610bb18661098d565b60005b82811015610bd957848901518255600182019150602085019450602081019050610bb4565b86831015610bf65784890151610bf2601f891682610aff565b8355505b6001600288020188555050505b505050505050565b7f4d6f64656c20646f6573206e6f742065786973742e0000000000000000000000600082015250565b6000610c416015836107ba565b9150610c4c82610c0b565b602082019050919050565b60006020820190508181036000830152610c7081610c34565b9050919050565b7f4f6e6c7920746865206f776e65722063616e2075706461746520746865206d6f60008201527f64656c2e00000000000000000000000000000000000000000000000000000000602082015250565b6000610cd36024836107ba565b9150610cde82610c77565b604082019050919050565b60006020820190508181036000830152610d0281610cc6565b905091905056fea2646970667358221220accaee92b23ec11e30747eec085e718832be6fbfa47ba9299855a55bb681825d64736f6c63430008140033",
  "linkReferences": {},
  "deployedLinkReferences": {}
}